{
  "contractName": "ForwarderTarget",
  "abi": [
    {
      "constant": true,
      "inputs": [],
      "name": "data",
      "outputs": [
        {
          "name": "",
          "type": "uint256"
        }
      ],
      "payable": false,
      "stateMutability": "view",
      "type": "function"
    },
    {
      "inputs": [],
      "payable": false,
      "stateMutability": "nonpayable",
      "type": "constructor"
    },
    {
      "payable": true,
      "stateMutability": "payable",
      "type": "fallback"
    },
    {
      "constant": false,
      "inputs": [
        {
          "name": "d",
          "type": "uint256"
        },
        {
          "name": "b",
          "type": "bool"
        }
      ],
      "name": "setDataWithValue",
      "outputs": [
        {
          "name": "",
          "type": "bool"
        }
      ],
      "payable": true,
      "stateMutability": "payable",
      "type": "function"
    },
    {
      "constant": false,
      "inputs": [
        {
          "name": "d",
          "type": "uint256"
        },
        {
          "name": "b",
          "type": "bool"
        }
      ],
      "name": "setData",
      "outputs": [
        {
          "name": "",
          "type": "bool"
        }
      ],
      "payable": false,
      "stateMutability": "nonpayable",
      "type": "function"
    },
    {
      "constant": false,
      "inputs": [],
      "name": "createForwarder",
      "outputs": [],
      "payable": false,
      "stateMutability": "nonpayable",
      "type": "function"
    }
  ],
  "bytecode": "0x608060405234801561001057600080fd5b506108db806100206000396000f300608060405260043610610062576000357c0100000000000000000000000000000000000000000000000000000000900463ffffffff16806373d4a13a14610064578063a68a76cc1461008f578063aee1af08146100a6578063fb4634dd146100f7575b005b34801561007057600080fd5b5061007961013b565b6040518082815260200191505060405180910390f35b34801561009b57600080fd5b506100a4610141565b005b3480156100b257600080fd5b506100dd60048036038101908080359060200190929190803515159060200190929190505050610169565b604051808215151515815260200191505060405180910390f35b6101216004803603810190808035906020019092919080351515906020019092919050505061017b565b604051808215151515815260200191505060405180910390f35b60005481565b61014961018d565b604051809103906000f080158015610165573d6000803e3d6000fd5b5050565b60008260008190555081905092915050565b60008260008190555081905092915050565b6040516107128061019e833901905600608060405234801561001057600080fd5b50336000806101000a81548173ffffffffffffffffffffffffffffffffffffffff021916908373ffffffffffffffffffffffffffffffffffffffff1602179055506106b2806100606000396000f300608060405260043610610061576000357c0100000000000000000000000000000000000000000000000000000000900463ffffffff168062821de3146101595780633ef13367146101b05780636b9f96ea146101f35780639b08e8fc1461020a575b6000809054906101000a900473ffffffffffffffffffffffffffffffffffffffff1673ffffffffffffffffffffffffffffffffffffffff166108fc349081150290604051600060405180830381858888f193505050501580156100c8573d6000803e3d6000fd5b507f69b31548dea9b3b707b4dff357d326e3e9348b24e7a6080a218a6edeeec48f9b3334600036604051808573ffffffffffffffffffffffffffffffffffffffff1673ffffffffffffffffffffffffffffffffffffffff16815260200184815260200180602001828103825284848281815260200192508082843782019150509550505050505060405180910390a1005b34801561016557600080fd5b5061016e61024d565b604051808273ffffffffffffffffffffffffffffffffffffffff1673ffffffffffffffffffffffffffffffffffffffff16815260200191505060405180910390f35b3480156101bc57600080fd5b506101f1600480360381019080803573ffffffffffffffffffffffffffffffffffffffff169060200190929190505050610272565b005b3480156101ff57600080fd5b50610208610567565b005b34801561021657600080fd5b5061024b600480360381019080803573ffffffffffffffffffffffffffffffffffffffff1690602001909291905050506105e8565b005b6000809054906101000a900473ffffffffffffffffffffffffffffffffffffffff1681565b6000806000809054906101000a900473ffffffffffffffffffffffffffffffffffffffff1673ffffffffffffffffffffffffffffffffffffffff163373ffffffffffffffffffffffffffffffffffffffff161415156102d057600080fd5b8291508173ffffffffffffffffffffffffffffffffffffffff166370a08231306040518263ffffffff167c0100000000000000000000000000000000000000000000000000000000028152600401808273ffffffffffffffffffffffffffffffffffffffff1673ffffffffffffffffffffffffffffffffffffffff168152602001915050602060405180830381600087803b15801561036e57600080fd5b505af1158015610382573d6000803e3d6000fd5b505050506040513d602081101561039857600080fd5b8101908080519060200190929190505050905060008114156103b957600080fd5b8173ffffffffffffffffffffffffffffffffffffffff1663a9059cbb6000809054906101000a900473ffffffffffffffffffffffffffffffffffffffff16836040518363ffffffff167c0100000000000000000000000000000000000000000000000000000000028152600401808373ffffffffffffffffffffffffffffffffffffffff1673ffffffffffffffffffffffffffffffffffffffff16815260200182815260200192505050602060405180830381600087803b15801561047d57600080fd5b505af1158015610491573d6000803e3d6000fd5b505050506040513d60208110156104a757600080fd5b810190808051906020019092919050505015156104c357600080fd5b7fb4bdccee2343c0b5e592d459c20eb1fa451c96bf88fb685a11aecda6b4ec76b1308285604051808473ffffffffffffffffffffffffffffffffffffffff1673ffffffffffffffffffffffffffffffffffffffff1681526020018381526020018273ffffffffffffffffffffffffffffffffffffffff1673ffffffffffffffffffffffffffffffffffffffff168152602001935050505060405180910390a1505050565b6000809054906101000a900473ffffffffffffffffffffffffffffffffffffffff1673ffffffffffffffffffffffffffffffffffffffff166108fc3073ffffffffffffffffffffffffffffffffffffffff16319081150290604051600060405180830381858888f193505050501580156105e5573d6000803e3d6000fd5b50565b6000809054906101000a900473ffffffffffffffffffffffffffffffffffffffff1673ffffffffffffffffffffffffffffffffffffffff163373ffffffffffffffffffffffffffffffffffffffff1614151561064357600080fd5b806000806101000a81548173ffffffffffffffffffffffffffffffffffffffff021916908373ffffffffffffffffffffffffffffffffffffffff160217905550505600a165627a7a7230582060fc767ba213381c122318464a19b746ebfd60290262e169febc79f98d97fe620029a165627a7a72305820d5414d99507324544ef6789eead91e789f15d9100a8b23291cafd7f8161d0d6c0029",
  "source": "pragma solidity ^0.4.18;\n\n\nimport \"./Forwarder.sol\";\n\n// This is a test target for a Forwarder.\n// It contains a public function with a side-effect.\ncontract ForwarderTarget {\n  uint public data;\n\n  function ForwarderTarget() public {\n  }\n\n  function setDataWithValue(uint d, bool b) payable public returns (bool) {\n    data = d;\n    return b;\n  }\n\n  function setData(uint d, bool b) public returns (bool) {\n    data = d;\n    return b;\n  }\n\n  function createForwarder() public {\n    new Forwarder();\n  }\n\n  function() public payable {\n    // accept unspendable balance\n  }\n}\n",
  "sourcePath": "/home/primoz/Documents/GitProjects/SigWallet/contracts/ForwarderTarget.sol",
  "compiler": {
    "name": "solc",
    "version": "0.4.24+commit.e67f0147.Emscripten.clang"
  },
  "schemaVersion": "2.0.1",
  "updatedAt": "2018-11-05T19:30:34.216Z"
}