{
  "contractName": "Forwarder",
  "abi": [
    {
      "constant": true,
      "inputs": [],
      "name": "parentAddress",
      "outputs": [
        {
          "name": "",
          "type": "address"
        }
      ],
      "payable": false,
      "stateMutability": "view",
      "type": "function"
    },
    {
      "inputs": [],
      "payable": false,
      "stateMutability": "nonpayable",
      "type": "constructor"
    },
    {
      "payable": true,
      "stateMutability": "payable",
      "type": "fallback"
    },
    {
      "anonymous": false,
      "inputs": [
        {
          "indexed": false,
          "name": "from",
          "type": "address"
        },
        {
          "indexed": false,
          "name": "value",
          "type": "uint256"
        },
        {
          "indexed": false,
          "name": "data",
          "type": "bytes"
        }
      ],
      "name": "ForwarderDeposited",
      "type": "event"
    },
    {
      "anonymous": false,
      "inputs": [
        {
          "indexed": false,
          "name": "forwarderAddress",
          "type": "address"
        },
        {
          "indexed": false,
          "name": "value",
          "type": "uint256"
        },
        {
          "indexed": false,
          "name": "tokenContractAddress",
          "type": "address"
        }
      ],
      "name": "TokensFlushed",
      "type": "event"
    },
    {
      "constant": false,
      "inputs": [
        {
          "name": "newParentAddress",
          "type": "address"
        }
      ],
      "name": "changeParent",
      "outputs": [],
      "payable": false,
      "stateMutability": "nonpayable",
      "type": "function"
    },
    {
      "constant": false,
      "inputs": [
        {
          "name": "tokenContractAddress",
          "type": "address"
        }
      ],
      "name": "flushTokens",
      "outputs": [],
      "payable": false,
      "stateMutability": "nonpayable",
      "type": "function"
    },
    {
      "constant": false,
      "inputs": [],
      "name": "flush",
      "outputs": [],
      "payable": false,
      "stateMutability": "nonpayable",
      "type": "function"
    }
  ],
  "bytecode": "0x608060405234801561001057600080fd5b50336000806101000a81548173ffffffffffffffffffffffffffffffffffffffff021916908373ffffffffffffffffffffffffffffffffffffffff1602179055506106b2806100606000396000f300608060405260043610610061576000357c0100000000000000000000000000000000000000000000000000000000900463ffffffff168062821de3146101595780633ef13367146101b05780636b9f96ea146101f35780639b08e8fc1461020a575b6000809054906101000a900473ffffffffffffffffffffffffffffffffffffffff1673ffffffffffffffffffffffffffffffffffffffff166108fc349081150290604051600060405180830381858888f193505050501580156100c8573d6000803e3d6000fd5b507f69b31548dea9b3b707b4dff357d326e3e9348b24e7a6080a218a6edeeec48f9b3334600036604051808573ffffffffffffffffffffffffffffffffffffffff1673ffffffffffffffffffffffffffffffffffffffff16815260200184815260200180602001828103825284848281815260200192508082843782019150509550505050505060405180910390a1005b34801561016557600080fd5b5061016e61024d565b604051808273ffffffffffffffffffffffffffffffffffffffff1673ffffffffffffffffffffffffffffffffffffffff16815260200191505060405180910390f35b3480156101bc57600080fd5b506101f1600480360381019080803573ffffffffffffffffffffffffffffffffffffffff169060200190929190505050610272565b005b3480156101ff57600080fd5b50610208610567565b005b34801561021657600080fd5b5061024b600480360381019080803573ffffffffffffffffffffffffffffffffffffffff1690602001909291905050506105e8565b005b6000809054906101000a900473ffffffffffffffffffffffffffffffffffffffff1681565b6000806000809054906101000a900473ffffffffffffffffffffffffffffffffffffffff1673ffffffffffffffffffffffffffffffffffffffff163373ffffffffffffffffffffffffffffffffffffffff161415156102d057600080fd5b8291508173ffffffffffffffffffffffffffffffffffffffff166370a08231306040518263ffffffff167c0100000000000000000000000000000000000000000000000000000000028152600401808273ffffffffffffffffffffffffffffffffffffffff1673ffffffffffffffffffffffffffffffffffffffff168152602001915050602060405180830381600087803b15801561036e57600080fd5b505af1158015610382573d6000803e3d6000fd5b505050506040513d602081101561039857600080fd5b8101908080519060200190929190505050905060008114156103b957600080fd5b8173ffffffffffffffffffffffffffffffffffffffff1663a9059cbb6000809054906101000a900473ffffffffffffffffffffffffffffffffffffffff16836040518363ffffffff167c0100000000000000000000000000000000000000000000000000000000028152600401808373ffffffffffffffffffffffffffffffffffffffff1673ffffffffffffffffffffffffffffffffffffffff16815260200182815260200192505050602060405180830381600087803b15801561047d57600080fd5b505af1158015610491573d6000803e3d6000fd5b505050506040513d60208110156104a757600080fd5b810190808051906020019092919050505015156104c357600080fd5b7fb4bdccee2343c0b5e592d459c20eb1fa451c96bf88fb685a11aecda6b4ec76b1308285604051808473ffffffffffffffffffffffffffffffffffffffff1673ffffffffffffffffffffffffffffffffffffffff1681526020018381526020018273ffffffffffffffffffffffffffffffffffffffff1673ffffffffffffffffffffffffffffffffffffffff168152602001935050505060405180910390a1505050565b6000809054906101000a900473ffffffffffffffffffffffffffffffffffffffff1673ffffffffffffffffffffffffffffffffffffffff166108fc3073ffffffffffffffffffffffffffffffffffffffff16319081150290604051600060405180830381858888f193505050501580156105e5573d6000803e3d6000fd5b50565b6000809054906101000a900473ffffffffffffffffffffffffffffffffffffffff1673ffffffffffffffffffffffffffffffffffffffff163373ffffffffffffffffffffffffffffffffffffffff1614151561064357600080fd5b806000806101000a81548173ffffffffffffffffffffffffffffffffffffffff021916908373ffffffffffffffffffffffffffffffffffffffff160217905550505600a165627a7a7230582060fc767ba213381c122318464a19b746ebfd60290262e169febc79f98d97fe620029",
  "source": "pragma solidity ^0.4.24;\nimport \"./ERC20Interface.sol\";\n/**\n * Contract that will forward any incoming Ether to the creator of the contract\n */\ncontract Forwarder {\n  // Address to which any funds sent to this contract will be forwarded\n  address public parentAddress;\n \n  event ForwarderDeposited(address from, uint value, bytes data);\n  event TokensFlushed(address forwarderAddress, uint value, address tokenContractAddress);\n\n  /**\n   * Create the contract, and sets the destination address to that of the creator\n   */\n  constructor() public{\n    parentAddress = msg.sender;\n  }\n\n  /**\n   * Modifier that will execute internal code block only if the sender is the parent address\n   */\n  modifier onlyParent {\n    if (msg.sender != parentAddress) {\n      revert();\n    }\n    _;\n  }\n\n  /**\n   * Default function; Gets called when Ether is deposited, and forwards it to the parent address\n   */\n  function() public payable {\n    // throws on failure\n    parentAddress.transfer(msg.value);\n    // Fire off the deposited event if we can forward it\n    emit ForwarderDeposited(msg.sender, msg.value, msg.data);\n  }\n  \n  function changeParent(address newParentAddress) public onlyParent{\n      parentAddress = newParentAddress;\n  }\n\n  /**\n   * Execute a token transfer of the full balance from the forwarder token to the parent address\n   * @param tokenContractAddress the address of the erc20 token contract\n   */\n  function flushTokens(address tokenContractAddress) public onlyParent {\n    ERC20Interface instance = ERC20Interface(tokenContractAddress);\n    uint256 forwarderBalance = instance.balanceOf(address(this));\n    if (forwarderBalance == 0) {\n      revert();\n    }\n    if (!instance.transfer(parentAddress, forwarderBalance)) {\n      revert();\n    }\n    // fire of an event just for the record!\n    emit TokensFlushed(address(this), forwarderBalance, tokenContractAddress);\n  }\n\n  /**\n   * It is possible that funds were sent to this address before the contract was deployed.\n   * We can flush those funds to the parent address.\n   */\n  function flush() public {\n    // throws on failure\n    parentAddress.transfer(address(this).balance);\n  }\n}\n\n",
  "sourcePath": "/home/primoz/Documents/GitProjects/SigWallet/contracts/Forwarder.sol",
  "compiler": {
    "name": "solc",
    "version": "0.4.24+commit.e67f0147.Emscripten.clang"
  },
  "schemaVersion": "2.0.1",
  "updatedAt": "2018-11-05T19:30:34.215Z"
}