{
  "contractName": "WalletSimple",
  "abi": [
    {
      "constant": true,
      "inputs": [
        {
          "name": "",
          "type": "uint256"
        }
      ],
      "name": "signers",
      "outputs": [
        {
          "name": "",
          "type": "address"
        }
      ],
      "payable": false,
      "stateMutability": "view",
      "type": "function"
    },
    {
      "constant": true,
      "inputs": [],
      "name": "safeMode",
      "outputs": [
        {
          "name": "",
          "type": "bool"
        }
      ],
      "payable": false,
      "stateMutability": "view",
      "type": "function"
    },
    {
      "inputs": [
        {
          "name": "allowedSigners",
          "type": "address[]"
        }
      ],
      "payable": false,
      "stateMutability": "nonpayable",
      "type": "constructor"
    },
    {
      "payable": true,
      "stateMutability": "payable",
      "type": "fallback"
    },
    {
      "anonymous": false,
      "inputs": [
        {
          "indexed": false,
          "name": "from",
          "type": "address"
        },
        {
          "indexed": false,
          "name": "value",
          "type": "uint256"
        },
        {
          "indexed": false,
          "name": "data",
          "type": "bytes"
        }
      ],
      "name": "Deposited",
      "type": "event"
    },
    {
      "anonymous": false,
      "inputs": [
        {
          "indexed": false,
          "name": "msgSender",
          "type": "address"
        }
      ],
      "name": "SafeModeActivated",
      "type": "event"
    },
    {
      "anonymous": false,
      "inputs": [
        {
          "indexed": false,
          "name": "forwarderAddress",
          "type": "address"
        }
      ],
      "name": "ForwarderCreated",
      "type": "event"
    },
    {
      "anonymous": false,
      "inputs": [
        {
          "indexed": false,
          "name": "msgSender",
          "type": "address"
        },
        {
          "indexed": false,
          "name": "toAddress",
          "type": "address"
        },
        {
          "indexed": false,
          "name": "value",
          "type": "uint256"
        }
      ],
      "name": "Transacted",
      "type": "event"
    },
    {
      "constant": true,
      "inputs": [
        {
          "name": "signer",
          "type": "address"
        }
      ],
      "name": "isSigner",
      "outputs": [
        {
          "name": "",
          "type": "bool"
        }
      ],
      "payable": false,
      "stateMutability": "view",
      "type": "function"
    },
    {
      "constant": false,
      "inputs": [],
      "name": "createForwarder",
      "outputs": [
        {
          "name": "",
          "type": "address"
        }
      ],
      "payable": true,
      "stateMutability": "payable",
      "type": "function"
    },
    {
      "constant": false,
      "inputs": [
        {
          "name": "toAddress",
          "type": "address"
        },
        {
          "name": "value",
          "type": "uint256"
        },
        {
          "name": "data",
          "type": "bytes"
        }
      ],
      "name": "sendMultiSig",
      "outputs": [],
      "payable": false,
      "stateMutability": "nonpayable",
      "type": "function"
    },
    {
      "constant": false,
      "inputs": [
        {
          "name": "forwarderAddress",
          "type": "address"
        },
        {
          "name": "newParentAddress",
          "type": "address"
        }
      ],
      "name": "changeForwarderParent",
      "outputs": [],
      "payable": false,
      "stateMutability": "nonpayable",
      "type": "function"
    },
    {
      "constant": false,
      "inputs": [
        {
          "name": "toAddress",
          "type": "address"
        },
        {
          "name": "value",
          "type": "uint256"
        },
        {
          "name": "tokenContractAddress",
          "type": "address"
        }
      ],
      "name": "sendMultiSigToken",
      "outputs": [],
      "payable": false,
      "stateMutability": "nonpayable",
      "type": "function"
    },
    {
      "constant": false,
      "inputs": [
        {
          "name": "forwarderAddress",
          "type": "address"
        },
        {
          "name": "tokenContractAddress",
          "type": "address"
        }
      ],
      "name": "flushForwarderTokens",
      "outputs": [],
      "payable": false,
      "stateMutability": "nonpayable",
      "type": "function"
    },
    {
      "constant": false,
      "inputs": [],
      "name": "activateSafeMode",
      "outputs": [],
      "payable": false,
      "stateMutability": "nonpayable",
      "type": "function"
    }
  ],
  "bytecode": "0x60806040526000600160006101000a81548160ff02191690831515021790555034801561002b57600080fd5b50604051611303380380611303833981018060405281019080805182019291905050506003815114151561005e57600080fd5b806000908051906020019061007492919061007b565b5050610148565b8280548282559060005260206000209081019282156100f4579160200282015b828111156100f35782518260006101000a81548173ffffffffffffffffffffffffffffffffffffffff021916908373ffffffffffffffffffffffffffffffffffffffff1602179055509160200191906001019061009b565b5b5090506101019190610105565b5090565b61014591905b8082111561014157600081816101000a81549073ffffffffffffffffffffffffffffffffffffffff02191690555060010161010b565b5090565b90565b6111ac806101576000396000f300608060405260043610610099576000357c0100000000000000000000000000000000000000000000000000000000900463ffffffff1680631473bb6f146101335780632079fb9a146101965780632da03409146102035780637df73e2714610266578063a68a76cc146102c1578063abe3219c1461030b578063d45478221461033a578063dbf67bfc146103cd578063fc0f392d1461043a575b6000341115610131577f6e89d517057028190560dd200cf6bf792842861353d1173761dfa362e1c133f03334600036604051808573ffffffffffffffffffffffffffffffffffffffff1673ffffffffffffffffffffffffffffffffffffffff16815260200184815260200180602001828103825284848281815260200192508082843782019150509550505050505060405180910390a15b005b34801561013f57600080fd5b50610194600480360381019080803573ffffffffffffffffffffffffffffffffffffffff169060200190929190803573ffffffffffffffffffffffffffffffffffffffff169060200190929190505050610451565b005b3480156101a257600080fd5b506101c160048036038101908080359060200190929190505050610522565b604051808273ffffffffffffffffffffffffffffffffffffffff1673ffffffffffffffffffffffffffffffffffffffff16815260200191505060405180910390f35b34801561020f57600080fd5b50610264600480360381019080803573ffffffffffffffffffffffffffffffffffffffff169060200190929190803573ffffffffffffffffffffffffffffffffffffffff169060200190929190505050610560565b005b34801561027257600080fd5b506102a7600480360381019080803573ffffffffffffffffffffffffffffffffffffffff169060200190929190505050610631565b604051808215151515815260200191505060405180910390f35b6102c96106d4565b604051808273ffffffffffffffffffffffffffffffffffffffff1673ffffffffffffffffffffffffffffffffffffffff16815260200191505060405180910390f35b34801561031757600080fd5b50610320610765565b604051808215151515815260200191505060405180910390f35b34801561034657600080fd5b506103cb600480360381019080803573ffffffffffffffffffffffffffffffffffffffff16906020019092919080359060200190929190803590602001908201803590602001908080601f0160208091040260200160405190810160405280939291908181526020018383808284378201915050505050509192919290505050610778565b005b3480156103d957600080fd5b50610438600480360381019080803573ffffffffffffffffffffffffffffffffffffffff16906020019092919080359060200190929190803573ffffffffffffffffffffffffffffffffffffffff1690602001909291905050506108c3565b005b34801561044657600080fd5b5061044f6109cb565b005b600061045c33610631565b151561046757600080fd5b8290508073ffffffffffffffffffffffffffffffffffffffff16639b08e8fc836040518263ffffffff167c0100000000000000000000000000000000000000000000000000000000028152600401808273ffffffffffffffffffffffffffffffffffffffff1673ffffffffffffffffffffffffffffffffffffffff168152602001915050600060405180830381600087803b15801561050557600080fd5b505af1158015610519573d6000803e3d6000fd5b50505050505050565b60008181548110151561053157fe5b906000526020600020016000915054906101000a900473ffffffffffffffffffffffffffffffffffffffff1681565b600061056b33610631565b151561057657600080fd5b8290508073ffffffffffffffffffffffffffffffffffffffff16633ef13367836040518263ffffffff167c0100000000000000000000000000000000000000000000000000000000028152600401808273ffffffffffffffffffffffffffffffffffffffff1673ffffffffffffffffffffffffffffffffffffffff168152602001915050600060405180830381600087803b15801561061457600080fd5b505af1158015610628573d6000803e3d6000fd5b50505050505050565b600080600090505b6000805490508110156106c9578273ffffffffffffffffffffffffffffffffffffffff1660008281548110151561066c57fe5b9060005260206000200160009054906101000a900473ffffffffffffffffffffffffffffffffffffffff1673ffffffffffffffffffffffffffffffffffffffff1614156106bc57600191506106ce565b8080600101915050610639565b600091505b50919050565b6000806106df610a5e565b604051809103906000f0801580156106fb573d6000803e3d6000fd5b5090507f6a1722b151fa6ee2129092224b7b96addf678f7981115ec5867d03fd820a415881604051808273ffffffffffffffffffffffffffffffffffffffff1673ffffffffffffffffffffffffffffffffffffffff16815260200191505060405180910390a15090565b600160009054906101000a900460ff1681565b61078133610631565b151561078c57600080fd5b8273ffffffffffffffffffffffffffffffffffffffff16828260405180828051906020019080838360005b838110156107d25780820151818401526020810190506107b7565b50505050905090810190601f1680156107ff5780820380516001836020036101000a031916815260200191505b5091505060006040518083038185875af192505050151561081f57600080fd5b7f13d158990ef9ffe9e1dd9aebb7d0500ff5ca2ee1b5ce46f5f668877376374cd2338484604051808473ffffffffffffffffffffffffffffffffffffffff1673ffffffffffffffffffffffffffffffffffffffff1681526020018373ffffffffffffffffffffffffffffffffffffffff1673ffffffffffffffffffffffffffffffffffffffff168152602001828152602001935050505060405180910390a1505050565b60006108ce33610631565b15156108d957600080fd5b8190508073ffffffffffffffffffffffffffffffffffffffff1663a9059cbb85856040518363ffffffff167c0100000000000000000000000000000000000000000000000000000000028152600401808373ffffffffffffffffffffffffffffffffffffffff1673ffffffffffffffffffffffffffffffffffffffff16815260200182815260200192505050602060405180830381600087803b15801561097f57600080fd5b505af1158015610993573d6000803e3d6000fd5b505050506040513d60208110156109a957600080fd5b810190808051906020019092919050505015156109c557600080fd5b50505050565b6109d433610631565b15156109df57600080fd5b60018060006101000a81548160ff0219169083151502179055507f0909e8f76a4fd3e970f2eaef56c0ee6dfaf8b87c5b8d3f56ffce78e825a9115733604051808273ffffffffffffffffffffffffffffffffffffffff1673ffffffffffffffffffffffffffffffffffffffff16815260200191505060405180910390a1565b60405161071280610a6f833901905600608060405234801561001057600080fd5b50336000806101000a81548173ffffffffffffffffffffffffffffffffffffffff021916908373ffffffffffffffffffffffffffffffffffffffff1602179055506106b2806100606000396000f300608060405260043610610061576000357c0100000000000000000000000000000000000000000000000000000000900463ffffffff168062821de3146101595780633ef13367146101b05780636b9f96ea146101f35780639b08e8fc1461020a575b6000809054906101000a900473ffffffffffffffffffffffffffffffffffffffff1673ffffffffffffffffffffffffffffffffffffffff166108fc349081150290604051600060405180830381858888f193505050501580156100c8573d6000803e3d6000fd5b507f69b31548dea9b3b707b4dff357d326e3e9348b24e7a6080a218a6edeeec48f9b3334600036604051808573ffffffffffffffffffffffffffffffffffffffff1673ffffffffffffffffffffffffffffffffffffffff16815260200184815260200180602001828103825284848281815260200192508082843782019150509550505050505060405180910390a1005b34801561016557600080fd5b5061016e61024d565b604051808273ffffffffffffffffffffffffffffffffffffffff1673ffffffffffffffffffffffffffffffffffffffff16815260200191505060405180910390f35b3480156101bc57600080fd5b506101f1600480360381019080803573ffffffffffffffffffffffffffffffffffffffff169060200190929190505050610272565b005b3480156101ff57600080fd5b50610208610567565b005b34801561021657600080fd5b5061024b600480360381019080803573ffffffffffffffffffffffffffffffffffffffff1690602001909291905050506105e8565b005b6000809054906101000a900473ffffffffffffffffffffffffffffffffffffffff1681565b6000806000809054906101000a900473ffffffffffffffffffffffffffffffffffffffff1673ffffffffffffffffffffffffffffffffffffffff163373ffffffffffffffffffffffffffffffffffffffff161415156102d057600080fd5b8291508173ffffffffffffffffffffffffffffffffffffffff166370a08231306040518263ffffffff167c0100000000000000000000000000000000000000000000000000000000028152600401808273ffffffffffffffffffffffffffffffffffffffff1673ffffffffffffffffffffffffffffffffffffffff168152602001915050602060405180830381600087803b15801561036e57600080fd5b505af1158015610382573d6000803e3d6000fd5b505050506040513d602081101561039857600080fd5b8101908080519060200190929190505050905060008114156103b957600080fd5b8173ffffffffffffffffffffffffffffffffffffffff1663a9059cbb6000809054906101000a900473ffffffffffffffffffffffffffffffffffffffff16836040518363ffffffff167c0100000000000000000000000000000000000000000000000000000000028152600401808373ffffffffffffffffffffffffffffffffffffffff1673ffffffffffffffffffffffffffffffffffffffff16815260200182815260200192505050602060405180830381600087803b15801561047d57600080fd5b505af1158015610491573d6000803e3d6000fd5b505050506040513d60208110156104a757600080fd5b810190808051906020019092919050505015156104c357600080fd5b7fb4bdccee2343c0b5e592d459c20eb1fa451c96bf88fb685a11aecda6b4ec76b1308285604051808473ffffffffffffffffffffffffffffffffffffffff1673ffffffffffffffffffffffffffffffffffffffff1681526020018381526020018273ffffffffffffffffffffffffffffffffffffffff1673ffffffffffffffffffffffffffffffffffffffff168152602001935050505060405180910390a1505050565b6000809054906101000a900473ffffffffffffffffffffffffffffffffffffffff1673ffffffffffffffffffffffffffffffffffffffff166108fc3073ffffffffffffffffffffffffffffffffffffffff16319081150290604051600060405180830381858888f193505050501580156105e5573d6000803e3d6000fd5b50565b6000809054906101000a900473ffffffffffffffffffffffffffffffffffffffff1673ffffffffffffffffffffffffffffffffffffffff163373ffffffffffffffffffffffffffffffffffffffff1614151561064357600080fd5b806000806101000a81548173ffffffffffffffffffffffffffffffffffffffff021916908373ffffffffffffffffffffffffffffffffffffffff160217905550505600a165627a7a7230582060fc767ba213381c122318464a19b746ebfd60290262e169febc79f98d97fe620029a165627a7a72305820c1eb4eff2ca6099cd7692ebd093294009a8460b95c89e02431ade7508ba0d94a0029",
  "source": "pragma solidity ^0.4.24;\nimport \"./Forwarder.sol\";\nimport \"./ERC20Interface.sol\";\n/**\n *\n * WalletSimple\n * ============\n *\n * Basic multi-signer wallet converted to a simpler one where only one signer can withdraw all the funds! \n *\n */\ncontract WalletSimple {\n  // Events\n  event Deposited(address from, uint value, bytes data);\n  event SafeModeActivated(address msgSender);\n  event ForwarderCreated(address forwarderAddress);\n  event Transacted(\n    address msgSender, // Address of the sender of the message initiating the transaction\n    address toAddress, // The address the transaction was sent to\n    uint value // Amount of Wei sent to the address\n  );\n\n  // Public fields\n  address[] public signers; // The addresses that can co-sign transactions on the wallet\n  bool public safeMode = false; // When active, wallet may only send to signer addresses\n \n\n  /**\n   * Set up a simple multi-sig wallet by specifying the signers allowed to be used on this wallet.\n   * 2 signers will be required to send a transaction from this wallet.\n   * Note: The sender is NOT automatically added to the list of signers.\n   * Signers CANNOT be changed once they are set\n   *\n   * @param allowedSigners An array of signers on the wallet\n   */\n  constructor(address[] allowedSigners) public {\n    if (allowedSigners.length != 3) {\n      // Invalid number of signers\n      revert();\n    }\n    signers = allowedSigners;\n  }\n\n  /**\n   * Determine if an address is a signer on this wallet\n   * @param signer address to check\n   * returns boolean indicating whether address is signer or not\n   */\n  function isSigner(address signer) public view returns (bool) {\n    // Iterate through all signers on the wallet and\n    for (uint i = 0; i < signers.length; i++) {\n      if (signers[i] == signer) {\n        return true;\n      }\n    }\n    return false;\n  }\n\n  /**\n   * Modifier that will execute internal code block only if the sender is an authorized signer on this wallet\n   */\n  modifier onlySigner {\n    if (!isSigner(msg.sender)) {\n      revert();\n    }\n    _;\n  }\n\n  /**\n   * Gets called when a transaction is received without calling a method\n   */\n  function() public payable {\n    if (msg.value > 0) {\n      // Fire deposited event if we are receiving funds\n      emit Deposited(msg.sender, msg.value, msg.data);\n    }\n  }\n  /**\n   * Create a new contract (and also address) that forwards funds to this contract\n   * returns address of newly created forwarder address\n   */\n  function createForwarder() public payable returns (address) {\n    Forwarder f = new Forwarder();\n    emit ForwarderCreated(address(f));\n  }\n\n  /**\n   * Execute a multi-signature transaction from this wallet using 2 signers: one from msg.sender and the other from ecrecover.\n   * Sequence IDs are numbers starting from 1. They are used to prevent replay attacks and may not be repeated.\n   *\n   * @param toAddress the destination address to send an outgoing transaction\n   * @param value the amount in Wei to be sent\n   * @param data the data to send to the toAddress when invoking the transaction\n   */\n  function sendMultiSig(\n      address toAddress,\n      uint value,\n      bytes data\n  ) public onlySigner {\n    // Success, send the transaction\n    if (!(toAddress.call.value(value)(data))) {\n      // Failed executing transaction\n      revert();\n    }\n    emit Transacted(msg.sender, toAddress, value);\n  }\n  \n    /**\n   * Change the parent wallet to which all the funds are transfered, this function is very sensitive and could be a security risk\n   *\n   * @param forwarderAddress the address of the forwarder address we want to change the parent of\n   * @param newParentAddress address of a new walletsimple contract to which all the incoming funds will be sent to from now on.\n   */\n  function changeForwarderParent(\n    address forwarderAddress, \n    address newParentAddress\n  ) public onlySigner {\n    Forwarder forwarder = Forwarder(forwarderAddress);\n    forwarder.changeParent(newParentAddress);\n  }\n      \n  \n  /**\n   * Execute a multi-signature token transfer from this wallet using 2 signers: one from msg.sender and the other from ecrecover.\n   * Sequence IDs are numbers starting from 1. They are used to prevent replay attacks and may not be repeated.\n   *\n   * @param toAddress the destination address to send an outgoing transaction\n   * @param value the amount in tokens to be sent\n   * @param tokenContractAddress the address of the erc20 token contract\n   */\n  function sendMultiSigToken(\n      address toAddress,\n      uint value,\n      address tokenContractAddress\n  ) public onlySigner {\n      \n    ERC20Interface instance = ERC20Interface(tokenContractAddress);\n    if (!instance.transfer(toAddress, value)) {\n        revert();\n    }\n  }\n  \n  /**\n   * Execute a token flush from one of the forwarder addresses. This transfer needs only a single signature and can be done by any signer\n   *\n   * @param forwarderAddress the address of the forwarder address to flush the tokens from\n   * @param tokenContractAddress the address of the erc20 token contract\n   */\n  function flushForwarderTokens(\n    address forwarderAddress, \n    address tokenContractAddress\n  ) public onlySigner {\n    Forwarder forwarder = Forwarder(forwarderAddress);\n    forwarder.flushTokens(tokenContractAddress);\n  }\n\n  /**\n   * Irrevocably puts contract into safe mode. When in this mode, transactions may only be sent to signing addresses.\n   */\n  function activateSafeMode() public onlySigner {\n    safeMode = true;\n    emit SafeModeActivated(msg.sender);\n  }\n}\n\n",
  "sourcePath": "/home/primoz/Documents/GitProjects/SigWallet/contracts/WalletSimple.sol",
  "compiler": {
    "name": "solc",
    "version": "0.4.24+commit.e67f0147.Emscripten.clang"
  },
  "schemaVersion": "2.0.1",
  "updatedAt": "2018-11-05T19:30:34.216Z"
}